{
  "address": "0x009F85Ea746F448A8c36D1B88383E4328f16e8d3",
  "abi": [
    {
      "inputs": [],
      "stateMutability": "nonpayable",
      "type": "constructor"
    },
    {
      "anonymous": false,
      "inputs": [
        {
          "indexed": false,
          "internalType": "address",
          "name": "donor",
          "type": "address"
        },
        {
          "indexed": false,
          "internalType": "uint256",
          "name": "amount",
          "type": "uint256"
        }
      ],
      "name": "Donation",
      "type": "event"
    },
    {
      "anonymous": false,
      "inputs": [
        {
          "indexed": false,
          "internalType": "address",
          "name": "memberAddress",
          "type": "address"
        },
        {
          "indexed": false,
          "internalType": "string",
          "name": "memberMsg",
          "type": "string"
        },
        {
          "indexed": false,
          "internalType": "uint256",
          "name": "memberNumber",
          "type": "uint256"
        }
      ],
      "name": "Member",
      "type": "event"
    },
    {
      "anonymous": false,
      "inputs": [
        {
          "indexed": false,
          "internalType": "address",
          "name": "memberAddress",
          "type": "address"
        },
        {
          "indexed": false,
          "internalType": "uint256",
          "name": "amount",
          "type": "uint256"
        }
      ],
      "name": "MemberWithdrawal",
      "type": "event"
    },
    {
      "anonymous": false,
      "inputs": [
        {
          "indexed": false,
          "internalType": "uint256",
          "name": "startTimestamp",
          "type": "uint256"
        },
        {
          "indexed": false,
          "internalType": "uint256",
          "name": "endTimestamp",
          "type": "uint256"
        },
        {
          "indexed": false,
          "internalType": "uint256",
          "name": "funds",
          "type": "uint256"
        },
        {
          "indexed": false,
          "internalType": "uint256",
          "name": "members",
          "type": "uint256"
        },
        {
          "indexed": false,
          "internalType": "uint256",
          "name": "fundsPerMember",
          "type": "uint256"
        }
      ],
      "name": "Month",
      "type": "event"
    },
    {
      "anonymous": false,
      "inputs": [
        {
          "indexed": false,
          "internalType": "address",
          "name": "userAddress",
          "type": "address"
        },
        {
          "indexed": false,
          "internalType": "string",
          "name": "userMsg",
          "type": "string"
        },
        {
          "indexed": false,
          "internalType": "uint256",
          "name": "userNumber",
          "type": "uint256"
        }
      ],
      "name": "UserAddedSelf",
      "type": "event"
    },
    {
      "anonymous": false,
      "inputs": [
        {
          "indexed": false,
          "internalType": "bytes",
          "name": "userId",
          "type": "bytes"
        },
        {
          "indexed": false,
          "internalType": "address",
          "name": "userAddress",
          "type": "address"
        },
        {
          "indexed": false,
          "internalType": "address",
          "name": "voucherAddress",
          "type": "address"
        },
        {
          "indexed": false,
          "internalType": "string",
          "name": "reasonVouchingFor",
          "type": "string"
        }
      ],
      "name": "UserVouchedFor",
      "type": "event"
    },
    {
      "inputs": [
        {
          "internalType": "string",
          "name": "_whyAddedSelf",
          "type": "string"
        }
      ],
      "name": "addSelf",
      "outputs": [],
      "stateMutability": "nonpayable",
      "type": "function"
    },
    {
      "inputs": [],
      "name": "donate",
      "outputs": [],
      "stateMutability": "payable",
      "type": "function"
    },
    {
      "inputs": [],
      "name": "frequency",
      "outputs": [
        {
          "internalType": "uint256",
          "name": "",
          "type": "uint256"
        }
      ],
      "stateMutability": "view",
      "type": "function"
    },
    {
      "inputs": [],
      "name": "lastTimestamp",
      "outputs": [
        {
          "internalType": "uint256",
          "name": "",
          "type": "uint256"
        }
      ],
      "stateMutability": "view",
      "type": "function"
    },
    {
      "inputs": [
        {
          "internalType": "address",
          "name": "",
          "type": "address"
        }
      ],
      "name": "memberLastWithdrawal",
      "outputs": [
        {
          "internalType": "uint256",
          "name": "",
          "type": "uint256"
        }
      ],
      "stateMutability": "view",
      "type": "function"
    },
    {
      "inputs": [
        {
          "internalType": "address",
          "name": "",
          "type": "address"
        }
      ],
      "name": "memberObjs",
      "outputs": [
        {
          "internalType": "uint256",
          "name": "memberId",
          "type": "uint256"
        },
        {
          "internalType": "string",
          "name": "message",
          "type": "string"
        },
        {
          "internalType": "uint256",
          "name": "timestampAdded",
          "type": "uint256"
        }
      ],
      "stateMutability": "view",
      "type": "function"
    },
    {
      "inputs": [],
      "name": "memberWithdrawal",
      "outputs": [],
      "stateMutability": "nonpayable",
      "type": "function"
    },
    {
      "inputs": [
        {
          "internalType": "uint256",
          "name": "",
          "type": "uint256"
        }
      ],
      "name": "originalMembers",
      "outputs": [
        {
          "internalType": "address",
          "name": "",
          "type": "address"
        }
      ],
      "stateMutability": "view",
      "type": "function"
    },
    {
      "inputs": [],
      "name": "returnTimestamp",
      "outputs": [
        {
          "internalType": "uint256",
          "name": "",
          "type": "uint256"
        }
      ],
      "stateMutability": "view",
      "type": "function"
    },
    {
      "inputs": [],
      "name": "threshold",
      "outputs": [
        {
          "internalType": "uint16",
          "name": "",
          "type": "uint16"
        }
      ],
      "stateMutability": "view",
      "type": "function"
    },
    {
      "inputs": [],
      "name": "totalAddedSelf",
      "outputs": [
        {
          "internalType": "uint256",
          "name": "",
          "type": "uint256"
        }
      ],
      "stateMutability": "view",
      "type": "function"
    },
    {
      "inputs": [],
      "name": "totalMembers",
      "outputs": [
        {
          "internalType": "uint256",
          "name": "",
          "type": "uint256"
        }
      ],
      "stateMutability": "view",
      "type": "function"
    },
    {
      "inputs": [],
      "name": "totalMonthlyFundsAvailable",
      "outputs": [
        {
          "internalType": "uint256",
          "name": "",
          "type": "uint256"
        }
      ],
      "stateMutability": "view",
      "type": "function"
    },
    {
      "inputs": [],
      "name": "tryFinishMonth",
      "outputs": [],
      "stateMutability": "nonpayable",
      "type": "function"
    },
    {
      "inputs": [
        {
          "internalType": "address",
          "name": "",
          "type": "address"
        }
      ],
      "name": "userObjs",
      "outputs": [
        {
          "internalType": "uint256",
          "name": "userId",
          "type": "uint256"
        },
        {
          "internalType": "string",
          "name": "userMsg",
          "type": "string"
        },
        {
          "internalType": "uint16",
          "name": "voteCounter",
          "type": "uint16"
        }
      ],
      "stateMutability": "view",
      "type": "function"
    },
    {
      "inputs": [],
      "name": "usersMonthlyLimit",
      "outputs": [
        {
          "internalType": "uint256",
          "name": "",
          "type": "uint256"
        }
      ],
      "stateMutability": "view",
      "type": "function"
    },
    {
      "inputs": [
        {
          "internalType": "bytes",
          "name": "_userId",
          "type": "bytes"
        },
        {
          "internalType": "address",
          "name": "_userVouchingFor",
          "type": "address"
        },
        {
          "internalType": "string",
          "name": "_reasonForVouching",
          "type": "string"
        }
      ],
      "name": "vouchForUser",
      "outputs": [],
      "stateMutability": "nonpayable",
      "type": "function"
    },
    {
      "inputs": [
        {
          "internalType": "address",
          "name": "",
          "type": "address"
        },
        {
          "internalType": "uint256",
          "name": "",
          "type": "uint256"
        }
      ],
      "name": "vouches",
      "outputs": [
        {
          "internalType": "address",
          "name": "",
          "type": "address"
        }
      ],
      "stateMutability": "view",
      "type": "function"
    },
    {
      "stateMutability": "payable",
      "type": "receive"
    }
  ],
  "transactionHash": "0x4ff35c9d446acd66d437650d9217af49dd5e7d6dea1b20d3ec3895a1c6bcd820",
  "args": [],
  "numDeployments": 1,
  "solcInputHash": "45696d5213d69c66923c0bb39ebd0ceb",
  "bytecode": "0x600060018190556002818155600382905560049190915560c0604052731e7aabb9d0c701208e875131d0a1cfcdaba7935060809081527375990d2df3b7699fb84d1d54978ec8b279dd4c1160a0526200005c91600991906200019c565b503480156200006a57600080fd5b5060005b60095461ffff82161015620000cb57620000b660098261ffff16815481106200009b576200009b6200021d565b6000918252602090912001546001600160a01b0316620000d6565b80620000c28162000249565b9150506200006e565b5042600055620004c9565b60028054906000620000e8836200026d565b90915550506001600160a01b038116600090815260066020908152604080832060025481556005909252909120600180830191620001289101826200032e565b504281600201819055507fb471bbca30aaccfe6fb1defb9e08f40850e204afb28e4cb2931d7307d2946cdd8260056000856001600160a01b03166001600160a01b0316815260200190815260200160002060010160025460405162000190939291906200041e565b60405180910390a15050565b828054828255906000526020600020908101928215620001f4579160200282015b82811115620001f457825182546001600160a01b0319166001600160a01b03909116178255602090920191600190910190620001bd565b506200020292915062000206565b5090565b5b8082111562000202576000815560010162000207565b634e487b7160e01b600052603260045260246000fd5b634e487b7160e01b600052601160045260246000fd5b600061ffff80831681810362000263576200026362000233565b6001019392505050565b60006001820162000282576200028262000233565b5060010190565b600181811c908216806200029e57607f821691505b602082108103620002bf57634e487b7160e01b600052602260045260246000fd5b50919050565b634e487b7160e01b600052604160045260246000fd5b601f8211156200032957600081815260208120601f850160051c81016020861015620003045750805b601f850160051c820191505b81811015620003255782815560010162000310565b5050505b505050565b8181036200033a575050565b62000346825462000289565b6001600160401b03811115620003605762000360620002c5565b620003788162000371845462000289565b84620002db565b6000601f821160018114620003af5760008315620003965750848201545b600019600385901b1c1916600184901b17845562000417565b600085815260209020601f19841690600086815260209020845b83811015620003eb5782860154825560019586019590910190602001620003c9565b50858310156200040a5781850154600019600388901b60f8161c191681555b50505060018360011b0184555b5050505050565b60018060a01b03841681526000602060608184015260008554620004428162000289565b80606087015260806001808416600081146200046757600181146200048257620004b2565b60ff1985168984015283151560051b890183019550620004b2565b8a6000528660002060005b85811015620004aa5781548b82018601529083019088016200048d565b8a0184019650505b505050505060409390930193909352509392505050565b6114f380620004d96000396000f3fe60806040526004361061010d5760003560e01c80638bd19a2511610095578063cc36de8511610064578063cc36de85146102c5578063d2731011146102e5578063ea2f5c3414610314578063ead50da31461032a578063ed88c68e1461034057600080fd5b80638bd19a251461024b57806393bb266914610260578063ad2f585d14610276578063b95b0891146102a557600080fd5b806337226969116100dc57806337226969146101b557806342cde4e8146101ca5780635fc4c1b4146101f257806376e925591461021f5780638684da9b1461023557600080fd5b806319d8ac61146101215780631e633a731461014a57806331bbd6391461015d57806334ee0d731461019557600080fd5b3661011c5761011a610344565b005b600080fd5b34801561012d57600080fd5b5061013760005481565b6040519081526020015b60405180910390f35b34801561015657600080fd5b5042610137565b34801561016957600080fd5b5061017d610178366004610e4d565b61037e565b6040516001600160a01b039091168152602001610141565b3480156101a157600080fd5b5061011a6101b0366004610f1a565b6103b6565b3480156101c157600080fd5b5061011a610659565b3480156101d657600080fd5b506101df600281565b60405161ffff9091168152602001610141565b3480156101fe57600080fd5b5061013761020d366004610fc2565b60086020526000908152604090205481565b34801561022b57600080fd5b5061013760025481565b34801561024157600080fd5b5061013760015481565b34801561025757600080fd5b5061011a610975565b34801561026c57600080fd5b5061013760035481565b34801561028257600080fd5b50610296610291366004610fc2565b610995565b6040516101419392919061102a565b3480156102b157600080fd5b5061011a6102c0366004611053565b610a40565b3480156102d157600080fd5b5061017d6102e0366004611090565b610b81565b3480156102f157600080fd5b50610305610300366004610fc2565b610bab565b604051610141939291906110a9565b34801561032057600080fd5b5061013760045481565b34801561033657600080fd5b506101376103e881565b61011a5b604080513381523460208201527f5d8bc849764969eb1bcc6d0a2f55999d0167c1ccec240a4f39cf664ca9c4148e910160405180910390a1565b6007602052816000526040600020818154811061039a57600080fd5b6000918252602090912001546001600160a01b03169150829050565b3360008181526006602052604081205490036104145760405162461bcd60e51b815260206004820152601860248201527720b2323932b9b99034b9902727aa10309026b2b6b132b91760411b60448201526064015b60405180910390fd5b82336001600160a01b03821681900361046f5760405162461bcd60e51b815260206004820152601f60248201527f596f752063616e206e6f7420766f75636820666f7220796f757273656c662e00604482015260640161040b565b843361047b8282610c5a565b156104e05760405162461bcd60e51b815260206004820152602f60248201527f5468697320616464726573732068617320616c726561647920766f756368656460448201526e103337b9103a3434b9903ab9b2b91760891b606482015260840161040b565b6001600160a01b03871660009081526007602052604090205487906002116105585760405162461bcd60e51b815260206004820152602560248201527f54686973207573657220616c72656164792068617320656e6f75676820766f7560448201526431b432b99760d91b606482015260840161040b565b6001600160a01b0388166000908152600560205260408120600201805461ffff1691610583836110ec565b825461ffff9182166101009390930a9283029190920219909116179055506001600160a01b03881660009081526007602090815260408083208054600181018255908452919092200180546001600160a01b0319163390811790915590517f5533f346f31f50414d3a5cedc3f6653c9baab26a3d8e14dcab2a8037dd38d13691610615918d918d918d91908d9061110d565b60405180910390a16001600160a01b038816600090815260056020526040902060029081015461ffff161061064d5761064d88610cf7565b50505050505050505050565b3360008181526006602052604081205490036106b25760405162461bcd60e51b815260206004820152601860248201527720b2323932b9b99034b9902727aa10309026b2b6b132b91760411b604482015260640161040b565b60008054338083526008602052604090922054106107265760405162461bcd60e51b815260206004820152602b60248201527f596f75206861766520616c72656164792077697468647261776e206f6e63652060448201526a3a3434b99036b7b73a341760a91b606482015260840161040b565b600047116107765760405162461bcd60e51b815260206004820152601960248201527f536f72727921205468652066756e6420697320656d7074792e00000000000000604482015260640161040b565b6004544710156108015760405162461bcd60e51b815260206004820152604a60248201527f536f72727921205468652066756e6420646f6573206e6f74206861766520656e60448201527f6f7567682066756e647320746f206d61746368207468652075736572734d6f6e6064820152693a34363ca634b6b4ba1760b11b608482015260a40161040b565b600080543382526006602052604090912060020154111561088a5760405162461bcd60e51b815260206004820152603f60248201527f536f7272792120596f752068617665206e6f74206265656e2061206d656d626560448201527f72206c6f6e6720656e6f75676820746f2077697468647261772066756e647300606482015260840161040b565b3360008181526008602052604080822042905560045490519192918381818185875af1925050503d80600081146108dd576040519150601f19603f3d011682016040523d82523d6000602084013e6108e2565b606091505b50509050806109335760405162461bcd60e51b815260206004820152601960248201527f4d656d626572205769746864726177616c206661696c65642e00000000000000604482015260640161040b565b6004546040805133815260208101929092527fd54f4ccc8b8562aa7bad60a66abfa20d8e3dbbca7d8674d259ff53d6c8169f4e910160405180910390a1505050565b6103e8600054610985919061116e565b421061099357610993610db7565b565b600660205260009081526040902080546001820180549192916109b790611181565b80601f01602080910402602001604051908101604052809291908181526020018280546109e390611181565b8015610a305780601f10610a0557610100808354040283529160200191610a30565b820191906000526020600020905b815481529060010190602001808311610a1357829003601f168201915b5050505050908060020154905083565b3360008181526005602052604090205415610a9d5760405162461bcd60e51b815260206004820152601a60248201527f4164647265737320697320616c7265616479206120557365722e000000000000604482015260640161040b565b3360008181526006602052604090205415610afa5760405162461bcd60e51b815260206004820152601c60248201527f4164647265737320697320616c72656164792061204d656d6265722e00000000604482015260640161040b565b60018054906000610b0a836111bb565b909155505033600090815260056020526040902060018054825560028201805461ffff191690558101610b3d8582611223565b507f8612839bc516b2a1f69e04ade41efeda55d18b94cc1af1ff94cd1e1a59c081cb3385600154604051610b73939291906112e3565b60405180910390a150505050565b60098181548110610b9157600080fd5b6000918252602090912001546001600160a01b0316905081565b60056020526000908152604090208054600182018054919291610bcd90611181565b80601f0160208091040260200160405190810160405280929190818152602001828054610bf990611181565b8015610c465780601f10610c1b57610100808354040283529160200191610c46565b820191906000526020600020905b815481529060010190602001808311610c2957829003601f168201915b5050506002909301549192505061ffff1683565b6000805b6001600160a01b03841660009081526007602052604090205461ffff82161015610ceb576001600160a01b03848116600090815260076020526040902080549185169161ffff8416908110610cb557610cb5611307565b6000918252602090912001546001600160a01b031603610cd9576001915050610cf1565b80610ce3816110ec565b915050610c5e565b50600090505b92915050565b60028054906000610d07836111bb565b90915550506001600160a01b038116600090815260066020908152604080832060025481556005909252909120600180830191610d4591018261131d565b504281600201819055507fb471bbca30aaccfe6fb1defb9e08f40850e204afb28e4cb2931d7307d2946cdd8260056000856001600160a01b03166001600160a01b03168152602001908152602001600020600101600254604051610dab939291906113f8565b60405180910390a15050565b6000805442909155476003819055600254610dd19161149b565b6004819055600054600354600254604080518681526020810194909452830191909152606082015260808101919091527f11c869e93036023657df1a1b862ee1536009e2a4035bbb5edc49da09860ebf2e9060a00160405180910390a150565b80356001600160a01b0381168114610e4857600080fd5b919050565b60008060408385031215610e6057600080fd5b610e6983610e31565b946020939093013593505050565b634e487b7160e01b600052604160045260246000fd5b600082601f830112610e9e57600080fd5b813567ffffffffffffffff80821115610eb957610eb9610e77565b604051601f8301601f19908116603f01168101908282118183101715610ee157610ee1610e77565b81604052838152866020858801011115610efa57600080fd5b836020870160208301376000602085830101528094505050505092915050565b60008060008060608587031215610f3057600080fd5b843567ffffffffffffffff80821115610f4857600080fd5b818701915087601f830112610f5c57600080fd5b813581811115610f6b57600080fd5b886020828501011115610f7d57600080fd5b60208301965080955050610f9360208801610e31565b93506040870135915080821115610fa957600080fd5b50610fb687828801610e8d565b91505092959194509250565b600060208284031215610fd457600080fd5b610fdd82610e31565b9392505050565b6000815180845260005b8181101561100a57602081850181015186830182015201610fee565b506000602082860101526020601f19601f83011685010191505092915050565b8381526060602082015260006110436060830185610fe4565b9050826040830152949350505050565b60006020828403121561106557600080fd5b813567ffffffffffffffff81111561107c57600080fd5b61108884828501610e8d565b949350505050565b6000602082840312156110a257600080fd5b5035919050565b8381526060602082015260006110c26060830185610fe4565b905061ffff83166040830152949350505050565b634e487b7160e01b600052601160045260246000fd5b600061ffff808316818103611103576111036110d6565b6001019392505050565b60808152846080820152848660a0830137600060a086830181018290526001600160a01b03868116602085015285166040840152601f8701601f19168301838103820160608501529061116290820185610fe4565b98975050505050505050565b80820180821115610cf157610cf16110d6565b600181811c9082168061119557607f821691505b6020821081036111b557634e487b7160e01b600052602260045260246000fd5b50919050565b6000600182016111cd576111cd6110d6565b5060010190565b601f82111561121e57600081815260208120601f850160051c810160208610156111fb5750805b601f850160051c820191505b8181101561121a57828155600101611207565b5050505b505050565b815167ffffffffffffffff81111561123d5761123d610e77565b6112518161124b8454611181565b846111d4565b602080601f831160018114611286576000841561126e5750858301515b600019600386901b1c1916600185901b17855561121a565b600085815260208120601f198616915b828110156112b557888601518255948401946001909101908401611296565b50858210156112d35787850151600019600388901b60f8161c191681555b5050505050600190811b01905550565b6001600160a01b038416815260606020820181905260009061104390830185610fe4565b634e487b7160e01b600052603260045260246000fd5b818103611328575050565b6113328254611181565b67ffffffffffffffff81111561134a5761134a610e77565b6113588161124b8454611181565b6000601f82116001811461138c57600083156113745750848201545b600019600385901b1c1916600184901b1784556113f1565b600085815260209020601f19841690600086815260209020845b838110156113c657828601548255600195860195909101906020016113a6565b50858310156113e45781850154600019600388901b60f8161c191681555b50505060018360011b0184555b5050505050565b60018060a01b0384168152600060206060818401526000855461141a81611181565b806060870152608060018084166000811461143c576001811461145657611484565b60ff1985168984015283151560051b890183019550611484565b8a6000528660002060005b8581101561147c5781548b8201860152908301908801611461565b8a0184019650505b505050505060409390930193909352509392505050565b6000826114b857634e487b7160e01b600052601260045260246000fd5b50049056fea2646970667358221220cb2bd39f21db5bcdb55ee5d4c77767fe94bd1dbe0dff87369e6b6bcf495d1f9464736f6c63430008110033",
  "devdoc": {
    "kind": "dev",
    "methods": {},
    "version": 1
  },
  "userdoc": {
    "kind": "user",
    "methods": {},
    "version": 1
  },
  "storageLayout": {
    "storage": [
      {
        "astId": 20,
        "contract": "contracts/GeneralFund.sol:GeneralFund",
        "label": "lastTimestamp",
        "offset": 0,
        "slot": "0",
        "type": "t_uint256"
      },
      {
        "astId": 23,
        "contract": "contracts/GeneralFund.sol:GeneralFund",
        "label": "totalAddedSelf",
        "offset": 0,
        "slot": "1",
        "type": "t_uint256"
      },
      {
        "astId": 26,
        "contract": "contracts/GeneralFund.sol:GeneralFund",
        "label": "totalMembers",
        "offset": 0,
        "slot": "2",
        "type": "t_uint256"
      },
      {
        "astId": 29,
        "contract": "contracts/GeneralFund.sol:GeneralFund",
        "label": "totalMonthlyFundsAvailable",
        "offset": 0,
        "slot": "3",
        "type": "t_uint256"
      },
      {
        "astId": 32,
        "contract": "contracts/GeneralFund.sol:GeneralFund",
        "label": "usersMonthlyLimit",
        "offset": 0,
        "slot": "4",
        "type": "t_uint256"
      },
      {
        "astId": 40,
        "contract": "contracts/GeneralFund.sol:GeneralFund",
        "label": "userObjs",
        "offset": 0,
        "slot": "5",
        "type": "t_mapping(t_address,t_struct(AddedUsers)8_storage)"
      },
      {
        "astId": 45,
        "contract": "contracts/GeneralFund.sol:GeneralFund",
        "label": "memberObjs",
        "offset": 0,
        "slot": "6",
        "type": "t_mapping(t_address,t_struct(Members)15_storage)"
      },
      {
        "astId": 50,
        "contract": "contracts/GeneralFund.sol:GeneralFund",
        "label": "vouches",
        "offset": 0,
        "slot": "7",
        "type": "t_mapping(t_address,t_array(t_address)dyn_storage)"
      },
      {
        "astId": 54,
        "contract": "contracts/GeneralFund.sol:GeneralFund",
        "label": "memberLastWithdrawal",
        "offset": 0,
        "slot": "8",
        "type": "t_mapping(t_address,t_uint256)"
      },
      {
        "astId": 60,
        "contract": "contracts/GeneralFund.sol:GeneralFund",
        "label": "originalMembers",
        "offset": 0,
        "slot": "9",
        "type": "t_array(t_address)dyn_storage"
      }
    ],
    "types": {
      "t_address": {
        "encoding": "inplace",
        "label": "address",
        "numberOfBytes": "20"
      },
      "t_array(t_address)dyn_storage": {
        "base": "t_address",
        "encoding": "dynamic_array",
        "label": "address[]",
        "numberOfBytes": "32"
      },
      "t_mapping(t_address,t_array(t_address)dyn_storage)": {
        "encoding": "mapping",
        "key": "t_address",
        "label": "mapping(address => address[])",
        "numberOfBytes": "32",
        "value": "t_array(t_address)dyn_storage"
      },
      "t_mapping(t_address,t_struct(AddedUsers)8_storage)": {
        "encoding": "mapping",
        "key": "t_address",
        "label": "mapping(address => struct GeneralFund.AddedUsers)",
        "numberOfBytes": "32",
        "value": "t_struct(AddedUsers)8_storage"
      },
      "t_mapping(t_address,t_struct(Members)15_storage)": {
        "encoding": "mapping",
        "key": "t_address",
        "label": "mapping(address => struct GeneralFund.Members)",
        "numberOfBytes": "32",
        "value": "t_struct(Members)15_storage"
      },
      "t_mapping(t_address,t_uint256)": {
        "encoding": "mapping",
        "key": "t_address",
        "label": "mapping(address => uint256)",
        "numberOfBytes": "32",
        "value": "t_uint256"
      },
      "t_string_storage": {
        "encoding": "bytes",
        "label": "string",
        "numberOfBytes": "32"
      },
      "t_struct(AddedUsers)8_storage": {
        "encoding": "inplace",
        "label": "struct GeneralFund.AddedUsers",
        "members": [
          {
            "astId": 3,
            "contract": "contracts/GeneralFund.sol:GeneralFund",
            "label": "userId",
            "offset": 0,
            "slot": "0",
            "type": "t_uint256"
          },
          {
            "astId": 5,
            "contract": "contracts/GeneralFund.sol:GeneralFund",
            "label": "userMsg",
            "offset": 0,
            "slot": "1",
            "type": "t_string_storage"
          },
          {
            "astId": 7,
            "contract": "contracts/GeneralFund.sol:GeneralFund",
            "label": "voteCounter",
            "offset": 0,
            "slot": "2",
            "type": "t_uint16"
          }
        ],
        "numberOfBytes": "96"
      },
      "t_struct(Members)15_storage": {
        "encoding": "inplace",
        "label": "struct GeneralFund.Members",
        "members": [
          {
            "astId": 10,
            "contract": "contracts/GeneralFund.sol:GeneralFund",
            "label": "memberId",
            "offset": 0,
            "slot": "0",
            "type": "t_uint256"
          },
          {
            "astId": 12,
            "contract": "contracts/GeneralFund.sol:GeneralFund",
            "label": "message",
            "offset": 0,
            "slot": "1",
            "type": "t_string_storage"
          },
          {
            "astId": 14,
            "contract": "contracts/GeneralFund.sol:GeneralFund",
            "label": "timestampAdded",
            "offset": 0,
            "slot": "2",
            "type": "t_uint256"
          }
        ],
        "numberOfBytes": "96"
      },
      "t_uint16": {
        "encoding": "inplace",
        "label": "uint16",
        "numberOfBytes": "2"
      },
      "t_uint256": {
        "encoding": "inplace",
        "label": "uint256",
        "numberOfBytes": "32"
      }
    }
  }
}